:10000000020E9C90015CE4F090015CE0FF7E00C376
:10001000EF9403EE64809480500FC2EFD2EE30EF85
:10002000FD90015CE004F080DF2222020D5EBB0146
:100030000689828A83E0225002E722BBFE02E32285
:1000400089828A83E49322BB010CE58229F582E54B
:10005000833AF583E0225006E92582F8E622BBFECA
:1000600006E92582F8E222E58229F582E5833AF560
:1000700083E49322BB010689828A83F0225002F72F
:1000800022BBFE01F322F8BB010DE58229F582E5D2
:10009000833AF583E8F0225006E92582C8F622BBB0
:1000A000FE05E92582C8F222EF8DF0A4A8F0CF8CDE
:1000B000F0A428CE8DF0A42EFE22C5F0F8A3E028EF
:1000C000F0C5F0F8E582158270021583E038F02261
:1000D000A3F8E0C5F025F0F0E582158270021583E3
:1000E000E0C838F0E822BB010A89828A83F0E5F093
:1000F000A3F0225006F709A7F01922BBFE06F3E58C
:10010000F009F31922EF2BFFEE3AFEED39FDEC3842
:10011000FC22C3EF9BFFEE9AFEED99FDEC98FC22CA
:10012000E88FF0A4CC8BF0A42CFCE98EF0A42CFC7E
:100130008AF0EDA42CFCEA8EF0A4CDA8F08BF0A4FC
:100140002DCC3825F0FDE98FF0A42CCD35F0FCEB5B
:100150008EF0A4FEA9F0EB8FF0A4CFC5F02ECD3920
:10016000FEE43CFCEAA42DCE35F0FDE43CFC227517
:10017000F008758200EF2FFFEE33FECD33CDCC3388
:10018000CCC58233C5829BED9AEC99E58298400CF0
:10019000F582EE9BFEED9AFDEC99FC0FD5F0D6E4CE
:1001A000CEFBE4CDFAE4CCF9A88222B800C1B900B4
:1001B00059BA002DEC8BF084CFCECDFCE5F0CBF915
:1001C0007818EF2FFFEE33FEED33FDEC33FCEB330D
:1001D000FB10D703994004EB99FB0FD8E5E4F9FA3B
:1001E000227818EF2FFFEE33FEED33FDEC33FCC920
:1001F00033C910D7059BE99A4007EC9BFCE99AF9B3
:100200000FD8E0E4C9FAE4CCFB2275F010EF2FFF21
:10021000EE33FEED33FDCC33CCC833C810D7079B8B
:10022000EC9AE899400AED9BFDEC9AFCE899F80FEE
:10023000D5F0DAE4CDFBE4CCFAE4C8F922C3E49FBC
:10024000FFE49EFEE49DFDE49CFC22EB9FF5F0EABA
:100250009E42F0E99D42F0EC6480C864809845F0CD
:1002600022EB9FF5F0EA9E42F0E99D42F0E89C45C2
:10027000F022E8600FECC313FCED13FDEE13FEEF6C
:1002800013FFD8F122E8600FEFC333FFEE33FEED2A
:1002900033FDEC33FCD8F122BB010789828A83024B
:1002A00002CA5005E9F80203E3BBFE05E9F80203C0
:1002B000EF22E0FCA3E0FDA3E0FEA3E0FF22E0F8D4
:1002C000A3E0F9A3E0FAA3E0FB22ECF0A3EDF0A396
:1002D000EEF0A3EFF022A8828583F0D083D08212C3
:1002E00002ED1202ED1202ED1202EDE473E493A3AB
:1002F000C583C5F0C583C8C582C8F0A3C583C5F052
:10030000C583C8C582C822A42582F582E5F035835D
:10031000F58322E0FBA3E0FAA3E0F922F8E0FBA3D7
:10032000A3E0F925F0F0E582158270021583E0FA6A
:1003300038F022EBF0A3EAF0A3E9F022E493FB7497
:100340000193FA740293F922BB010789828A83021E
:1003500003135005E9F80203FBBBFE05E9F80204AC
:100360000D89828A8302033CBB011A89828A83D069
:10037000F0D0E0F8D0E0F9D0E0FAD0E0FBE8C0E05F
:10038000C0F00203335016E9F8D083D082D0E0F9F0
:10039000D0E0FAD0E0FBC082C083020404BBFE16AA
:1003A000E9F8D083D082D0E0F9D0E0FAD0E0FBC009
:1003B00082C08302041622D083D082F8E4937012A4
:1003C000740193700DA3A393F8740193F58288834D
:1003D000E4737402936860EFA3A3A380DF8A838928
:1003E00082E473ECF608EDF608EEF608EFF622EC80
:1003F000F208EDF208EEF208EFF222E6FB08E6FA68
:1004000008E6F922EBF608EAF608E9F622E2FB082C
:10041000E2FA08E2F922EBF208EAF208E9F222C273
:10042000AF900000E0FF900146EFF0D2AF900001E6
:10043000E0FF900146E0FEEE6F70030205BD900004
:1004400001E0FF900146E0FEEED39F4010900001D6
:10045000E0FF900146E0FEC3EE9FFF801290000196
:10046000E0FFC374FF9FFF900146E0FEEF2EFF9078
:100470000147EFF0900146E0FF900001EFF090019E
:1004800047E0FF7E00900042EE8FF01200BA90002D
:1004900042E0FEA3E0FFC3EF94E8EE940340229015
:1004A000004274FC75F0181200BA9000021202B2F9
:1004B0007B017A0079007800120105900002120297
:1004C000CA900145E4F0900145E0FF7E00C3EF943F
:1004D0000AEE6480948040030205BD900145E0FF70
:1004E000EF75F006A42406F582E43400F5831202C9
:1004F000B2EC4D4E4F70030205B4900147E0FFE4AB
:10050000FCFDFE900145E0FBEB75F006A42406F52A
:1005100082E43400F5831202BEC3120261402690C9
:100520000147E0FFAB07E4FAF9F8900145E0FFEF7F
:1005300075F006A42406F582E43400F5831202B2B5
:1005400012011280087F007E007D007C0090014532
:10055000E0FBEB75F006A42406F582E43400F58395
:100560001202CA900145E0FFEF75F006A42406F5DB
:1005700082E43400F5831202B27B007A00790078BD
:1005800000C3120261702D900145E0FFEF75F00687
:10059000A4240AF582E43400F583E0FF900145E0ED
:1005A000FEEE75F006A4240BF582E43400F583E03A
:1005B000FD120C94900145E004F00204C622900064
:1005C000CAEFF09000CBEDF09000CAE0FF7E00C3D0
:1005D000EF9405EE648094805003D38001C3400300
:1005E000120EC89000CBE0FF7E00C3EF9408EE64CB
:1005F0008094805003D38001C34003120EC87F0053
:100600007E007D007C009000CC1202BEC31202610D
:100610006003D38001C34003120EC89000CAE0FFFC
:100620009000CBE0FD1208BF9000D0EFF09000D01A
:10063000E0FF7E00EF640A4E601D9000CC1202B213
:100640009000D0E0FBEB75F006A42406F582E434BC
:1006500000F5831202CA229000D0E4F09000D0E0AE
:10066000FF7E00C3EF940AEE64809480400302068C
:10067000F09000D0E0FFEF75F006A42406F582E4C8
:100680003400F5831202B27B007A0079007800C34F
:1006900012026170529000CC1202B29000D0E0FBC6
:1006A000EB75F006A42406F582E43400F58312020B
:1006B000CA9000CAE0FF9000D0E0FEEE75F006A4FC
:1006C000240AF582E43400F583EFF09000CBE0FFDC
:1006D0009000D0E0FEEE75F006A4240BF582E43421
:1006E00000F583EFF080099000D0E004F002065C92
:1006F0009000D0E0FF7E00EF640A4E6003D38001DB
:10070000C34003120EC82212041F90013BE4F09074
:10071000013BE0FF7E00C3EF9405EE6480948050BF
:10072000E6C2AF90013BE0FF74172FF582E434017D
:10073000F583E0FF900139EFF0D2AF900139E0FF8F
:10074000EF70030207FC90013AE4F090013AE0FFF9
:100750007E00C3EF9408EE64809480502F90013A9D
:10076000E0FF7E007401A807088005C333CE33CEB6
:10077000D8F9FF900139E0FD7C00EE5CFEEF5DFFF3
:10078000EF4E700890013AE004F080BF90013AE02B
:10079000FFA8077401088002C333D8FCFF90013919
:1007A000EFF0900139E0FFEFF4FF900139EFF0C274
:1007B000AF90013BE0FF74172FF582E43401F5831D
:1007C000C083C082E0FF900139E0FEEF5EFFD0827F
:1007D000D083EFF0D2AF90013BE0FF90013AE0FD13
:1007E00090013BE0FE75F003EE900FBE120307127E
:1007F000033C89828A831203E102070790013BE0F0
:1008000004F002070F020707227F08120AFC90007B
:10081000C4EEF0A3EFF07F05120AFC9000C2EEF0E8
:10082000A3EFF0120F73E4FCFD9000C61202CA9011
:1008300000C61202BE9000C2E0FEA3E0FFE4FCFD91
:100840001201209000C61202CA9000C61202B27BAA
:10085000037A00790078001201209000C61202CAC3
:100860009000C61202B278021202729000C6120202
:10087000CA9000C61202B2C004C005C006C00790EC
:1008800000C4E0FEA3E0FFAB07AA06E4F9F8D00736
:10089000D006D005D0041201AB9000C61202CA7F68
:1008A000FF7EFF7D007C009000C61202BED31202C4
:1008B0006140057EFF7FFF229000C61202B22290A7
:1008C0000142EFF0900143EDF0900144E4F090011B
:1008D00044E0FF7E00C3EF940AEE64809480506889
:1008E000900144E0FFEF75F006A42406F582E4349D
:1008F00000F5831202B27B007A0079007800C312FF
:100900000261503C900144E0FFEF75F006A4240A18
:10091000F582E43400F583E0FF900142E0FEEFB59C
:10092000061E900144E0FFEF75F006A4240BF5824B
:10093000E43400F583E0FF900143E0FEEF6E6008D1
:10094000900144E004F08086900144E0FF22120F01
:100950009BEF3395E0FEFDFC7B407A9C79007800AC
:10096000120120EF2480FFEE34A8FEED3412FDECDE
:100970003401FC9000F81202CA7BE87A037900780F
:10098000009000F81202B2120CDCC3E49FFFE49E58
:10099000FE9000F6EEF0A3EFF053C98F53C8FE436C
:1009A000C98043C9089000F6E0FEA3E0FFEF54FFC2
:1009B000F5CA9000F6E0FEA3E0FFEEFF7E008FCBCD
:1009C00075CC0075CD00439B80D2CA2275C7AA752D
:1009D000C755439F0175A60C75A70075AF0475C771
:1009E000AA75C75543A40190014EE5AEF075A60D5A
:1009F00075A70075AF0475C7AA75C75543A40190C4
:100A0000014FE5AEF090014FE0FFEF540FFF900172
:100A10004FEFF075C7AA75C755539FFE90014EE082
:100A2000FF7E00EF75F010A4FFAEF090014FE0FDE7
:100A30007C00EE4CFEEF4DFF900150EEF0A3EFF086
:100A40002275C7AA75C755439F0175A63075A700C3
:100A500075AF0475C7AA75C75543A401900152E547
:100A6000AEF075A63175A70075C7AA75C75543A422
:100A700001900153E5AEF075C7AA75C755539FFEA7
:100A8000900152E0FF7E00EF25E0FFEE33FE900183
:100A900053E0FDED5401FD7C00EE4CFEEF4DFF22D6
:100AA00090012FE0FFEF1203B70AB6000ABA010A5D
:100AB000F80200000AFB120FA722120FB2120FABAE
:100AC00090012EE0FF7E00EF4E70077D007F021246
:100AD0000C9490012EE0FF7E00EF64014E70077DC4
:100AE000017F03120C949000CC1202D600001388F0
:100AF0007D067F041205BE22120FB52290015DEF24
:100B0000F090015DE0FFEF1203B70B110500000B41
:100B10002853E8F043E80543B11053B2EF75F600EF
:100B200043F62043E101800C43E80853E8F843E131
:100B300001120003C2EFD2EE30EFFDAFC37E00EF33
:100B400075F010A4FFAEF0E5C2540FFD7C00EE4C32
:100B5000FEEF4DFF2290015AEFF090015BEDF09017
:100B6000015AE0FF90015AEFF090015BE0FFEF12B5
:100B700003B70B8B010B97020B93030B8F040B9B9B
:100B8000050B9F060BA30700000BA7120D9B22125B
:100B90000FBD22120FBC22120FBB22120AA022127A
:100BA0000F5C22120E3822120FB82290015FEFF074
:100BB00090015FE0FFEF3395E0FED3EF9414EE6415
:100BC000809480400890015F7414F0801B90015F56
:100BD000E0FFEF3395E0FEC3EF94ECEE6480947F8A
:100BE000500690015F74ECF0120FA190015FE0FFDE
:100BF000120E0412094E90015FE0FF22900154EEA4
:100C0000F0A3EFF0900154E0FEA3E0FFEE5401FEEC
:100C1000900154EEF0A3EFF0900154E0FEA3E0FF4A
:100C2000EEA2E713FEEF13FF8F08900154E0FEA33E
:100C3000E0FFEF5401F50975C7AA75C7558508840B
:100C400075C7AA75C755850985229000B11203336F
:100C50009000B4EDF09000B11203139000B71203AE
:100C6000339000B574FF75F0FF1200D0AFF0FED3E3
:100C7000EF9400EE940040159000B4E0FF9000B7B0
:100C8000E475F00112031CEF12007480D49000B1DF
:100C90001203132290013CEFF090013DEDF0900122
:100CA0003DE0FFA8077401088002C333D8FCFF9021
:100CB000013EEFF0C2AF90013CE0FF74172FF582C8
:100CC000E43401F583C083C082E0FF90013EE0FE82
:100CD000EF4EFFD082D083EFF0D2AF22C2D5E83002
:100CE000E70FB2D5E4C39BFBE49AFAE499F9E498E0
:100CF000F8EC30E717B2D5120D121201ABE4C39B2A
:100D0000FBE49AFAE499F9E498F880031201AB3015
:100D1000D50DE4C39FFFE49EFEE49DFDE49CFC2210
:100D2000D29053B3FE43B401A2AF920075C7AA7527
:100D3000C75575910143B40175C7AA75C75575911B
:100D400000A20092AF53DF3FC2DFD2DC20DCFD7592
:100D5000D10075D90575D40075DC03D2DF22C0E05F
:100D6000C0F0C083C082C0D075D000C000C001C038
:100D700002C003C004C005C006C007C2CF120F9452
:100D8000D007D006D005D004D003D002D001D000C7
:100D9000D0D0D082D083D0F0D0E03290012EE4F0D9
:100DA00090012CE4F0A3E4F090012FE4F07D007FAB
:100DB00002120C947D017F03120C947D077F0412B4
:100DC0000C947F00120BAB7F03120F0B120FA722A4
:100DD000120A41900156EEF0A3EFF0900156E0FEAA
:100DE000A3E0FFEF24CEFFEE34FFFE120BFC9001D8
:100DF00056E0FEA3E0FF900136EEF0A3EFF0900185
:100E000038E4F02290015EEFF0900136E0FEA3E0BE
:100E1000FFEF24CEFFEE34FFFE90015EE0FDED33E8
:100E200095E0FCC3EF9DFFEE9CFE120BFC90015E73
:100E3000E0FF900138EFF02290012FE0FF7E00EFFD
:100E400064014E601E12080990012CEEF0A3EFF031
:100E500090012EE0FFEF1203B70E63000E63010056
:100E6000000E637D077F04120C94227B017A0079C7
:100E7000069000B5E4F0A3743CF07D00120C4A909B
:100E800000021202D600000000900042E4F0A3E449
:100E9000F0900001E4F0900000E4F02275C7AA751C
:100EA000C75575FD5A75C7AA75C75575FDA5787FD5
:100EB000E4F6D8FD9000007FFF7E03E4F0A3DFFCA2
:100EC000DEFA758120020F249001281202D600005C
:100ED00000009001281202B27B017A0079007800AC
:100EE0001201059001281202CA80E722900158EFF2
:100EF000F0900159EDF0900158E0FF900158EFF0AB
:100F0000900159E0FF8000120FAF22900160EFF0D6
:100F100075D400900160E0FFC374059FF5DCD2DE5C
:100F200020DEFD22C2AF120F8D120F69120F85D283
:100F3000AF120707E47E007F00227B017A01791758
:100F40009000B5E4F0A37405F07D00120C4A221263
:100F5000002A120DD012094E1209CC2290012FE462
:100F6000F07D057F04120C9422120F4F120D2012F7
:100F70000F7C22900150E0FEA3E0FF22D29353B3F6
:100F8000F753B4F7227D017F04120C9422120E6BEA
:100F9000120F3A22900000E004F022900138E0FFA6
:100FA00022C2CA539B7F2243DE042253DEFB2280EF
:100FB000FE22C29322D2932280FE22222222FF0E00
:0D0FC000EC000000000000000000FF0B55D9
:00000001FF
